:020000000C945E
:100002008C000C9400000C9400000C9400000C94E2
:1000120000000C9400000C9400000C9400000C945E
:1000220000000C9400000C9400000C9400000C944E
:1000320000000C9400000C9400000C9400000C943E
:1000420000000C9400000C9400000C9400000C942E
:1000520000001027E80364000A00010000100001FC
:1000620010000100000200020032000001004C6991
:100072006768743A2564004155544F004D414E4E15
:1000820055414C004D6F74696F6E20446574656311
:10009200746564004E6F204D6F74696F6E2020206E
:1000A200202020200047696F692048616E20412F7F
:1000B200533A2025640043687561204D6F204E68D5
:1000C200616300506C6179696E6720736F6E673A85
:1000D200202564004D4F204E4841430080C0080057
:1000E200040066000100A3016E00050060017900B2
:1000F200080065017E0010006D01860011007D017F
:1001020096000D008E01B80008009B01D600020087
:10011200B801DE000000F894EE27ECBBF1E0FBBF73
:10012200EBBFE5BF8DE0A2E0BB27ED938A95E9F72F
:1001320080E094E0A0E6ED930197E9F7E0EEF0E0CD
:1001420085919591009761F0A591B59105901590D3
:10015200BF01F00105900D920197E1F7FB01F0CF8D
:10016200EFE5EDBFE4E0EEBFC0E6D1E00C94340170
:10017200BA93AA93E981F070E0BDE881E9B9E8E1B8
:10018200EAB9E6E8E0BD0C941104E0E4E7B9E0E87E
:10019200E6B9E6B1E660E6B90895AA93E7B1E87F69
:1001A200AE2FE881E770EA2BE7B98BE18A95F1F788
:1001B200369A349BFECF349AE4B1F5B10C947F04A5
:1001C200AA935D9BFECFE881ECB90C947F04BA93AD
:1001D200AA93AEE7F5DFAFEFF3DFA6E0F1DFAA8186
:1001E200EFDFA0E0EDDFA981EBDFA881E9DFAFEE71
:1001F200E7DFAAE0B0E00E9403050C945004BA9332
:10020200AA93AE81BF81E885F985EA1BFB0B6627BD
:1002120077277F936F93FF93EF93AA81BB81E88146
:10022200F981EA1BFB0B66277727AF91BF918F916C
:100232009F910E943D057F936F93FF93EF93AE8151
:10024200BF81EC81FD81EA1BFB0BAF91BF918F91C6
:100252009F91662777270E947A05AA81BB81EA0FC0
:10026200FB1F2A960895E0E0E4BBE8E0E7BBC39AEF
:10027200E0E0E1BBA3E3B0E07BDF87DFA0E10E9427
:100282005204839909C0EA2DF0E03196DF01E3E0E0
:10029200F0E00E947F05AE2E839BFECFEA2DF0E0B8
:1002A200309709F06DC0A0E078DFE093B401F093DD
:1002B200B5010E949A04EFEFF3E00E949A04A4E6CB
:1002C200B0E09DDF6F01E4E6F0E0EC19FD096F019B
:1002D2000E94A104E0E7F0E0FA93EA93F6016627B0
:1002E20077270E94A8040E944104829904C0E82D45
:1002F2000E94B6048E2E829BFECF882041F4E9E054
:10030200EA93A0E00E940204A0E6B1E007C0E9E09F
:10031200EA93A0E00E940204A5E6B1E00E94410433
:10032200989B0CC0882031F4E92DD601F0E0EA1741
:10033200FB0718F4E1E0E81509F401C012C0C39804
:10034200E3E0EA93A6E0B0E042DFE6E9F0E0E09322
:10035200B601F093B701E0E00E94BD04ADE6B1E062
:100362000CC0E091B601F091B701309709F4C39A3D
:10037200E0E00E94BD04ADE7B1E00E94410465C027
:10038200E130A0E0FA07D9F4849905C09394A8EC6F
:10039200B0E00E940305859905C09A94A8ECB0E0EC
:1003A2000E9403050E94A104E7EAF0E0FA93EA93AF
:1003B200E92DFF27662777270E94A80444C0E23070
:1003C200A0E0FA0709F041C0829904C0EB2D0E9417
:1003D200B604BE2E829BFECFBB2041F40E941304C2
:1003E200E2E00E94BD04AEE8B1E02DC0849905C0F0
:1003F200E091A301F0E00E94C104849BFECF8599A5
:1004020006C0E091A301F0E032960E94C104859BF0
:10041200FECFE3E0EA93A091A301BB27D8DE0E94BE
:10042200A104E5ECF0E0FA93EA93E091A301FF273F
:10043200662777270E94A8040E944104E3E00E94F5
:10044200BD04ABE9B1E00E944104A091B601B091B4
:10045200B7010E94B7053CF4A6EBB1E0ED91FD9126
:100462003197FE93EE93A4E6B0E00E94030509CF14
:10047200FFCFBA93AA931A930A93AA81BB811296C9
:100482000E94AA05309759F1AA81BB8114960E9455
:10049200AA058F01309761F00230E0E01E0798F064
:1004A200F80131978F01AA81BB811496ED93FC93D9
:1004B200AA81BB811296ED91FD913196FE93EE9346
:1004C2003197AC81A083AA81BB810E94AA05FF2338
:1004D2002AF0ED91FD913196FE93EE9306C0AA812A
:1004E200BB81EFEFFFEFED93FC9319810881259615
:1004F2000895BA93AA9326970E94BB0510E0AC8593
:10050200BD85E0E0F0E0ED93FC93EA89FB8931964A
:10051200EA8BFB8B3197E4912E2FE03009F415C161
:10052200E12FE03039F4253211F411E002C00E94CB
:10053200C9040AC1E130A9F4253219F40E94C904A0
:1005420002C112E040E000E02D3211F401E0FCC0F3
:100552002B3211F44BE2F8C0203211F440E2F4C025
:1005620002C0E23039F450E013E0203311F40068A5
:10057200EBC003C0E33009F0E7C0203310F02A33A8
:1005820008F007C0AAE05A9F502DE22FE0535E0FF9
:10059200DBC0E22FE33649F40E94D004E889F989EE
:1005A200A481AA930E94D604CEC0E33741F40E94EC
:1005B200D0040E94DC040E9481041E2F0AC0E0378E
:1005C20061F40E94D0040E94DC040E948D041E2F5C
:1005D200086002600F7730E034C0E43611F0E9368B
:1005E20011F4046002C0E53731F4E4E5F0E0EE8393
:1005F200FF8315E00CC0E83511F4086003C0E8374A
:1006020009F0A1C0EEE5F0E0EE83FF8314E002FF03
:1006120014C00E94D0040E94E604AB85AA233AF4D7
:10062200EA85FB850E941105EA87FB874DE240308F
:1006320011F01F5F01C00B7F04C00E94D0040E9412
:10064200E60400FD11C0151778F407FF08C002FF89
:1006520004C00B7F242F115001C020E301C020E20F
:100662000E94C9045150EFCF312F01FF17C0303023
:10067200A1F003FF06C0EE81FF812591EE83FF8387
:1006820005C0AE81BF812D91AE83BF830E94C90494
:10069200503009F051503150EACF4BC020E3EE8187
:1006A200FF810E94AE05E887F987EE81FF813296CD
:1006B200EE83FF83E885F985AA85BB85AE17BF0760
:1006C20050F02F5FA885B985EA85FB85EA1BFB0BF5
:1006D200EA87FB87EFCF2A3328F003FF02C0295FA6
:1006E20001C0295D04FD1AC0213320F4A885B98513
:1006F200119709F409C0531710F000FF01C013C08D
:1007020020E207FF0BC020E3006102FF07C00B7F5E
:100712004A930E94D604503009F051500E94C904F5
:10072200503009F051503150A885B985129708F020
:10073200B5CF00FF08C0503031F05150E0E2EA93EB
:100742000E94D604F8CF10E0E0CEAC85BD850E94B1
:10075200AA050E94C20564960895FF92F82E269774
:100762000E94BD050E94EE04309719F4EFEFFFEFEF
:1007720023C0DE0116960E940D058D010E94EE0433
:10078200EE83FF83E0E0E887E987DE011A960E94A4
:100792000D050E94AA05FA93EA931A930A93EAE3D3
:1007A200F2E0FA93EA93DE011A96A3DE9F01AE818C
:1007B200BF81E0E0EC93F9010E94C4052A96FF9004
:1007C2000895AA93E5B3EF70AE2FE881E07FEA2B9C
:1007D200E5BB8DE08A95F1F7AB9A8DE08A95F1F74A
:1007E200AB988DE08A95F1F789C0AA93A881E9DFD9
:1007F200E881E295E883A881E4DF85E88A95F1F74C
:100802007DC0AA93E881F0E0E854FE4FE081A9811F
:10081200AE0FEBDFE981E093BC01E881E093BD011B
:1008220022960895A2E00E94F504ACE0DEDFA1E08A
:100832000E94F504E0E0E093BD01E093BC0108955D
:10084200AA93A881AA3031F0E091BE01A091BC0127
:10085200AE1760F0E0E0EA93A091BD01AF5FA09314
:10086200BD01CFDFA881AA3009F448C0E091BC01E4
:10087200EF5FE093BC01A99AA881B7DFA9983EC0B7
:10088200BA93AA931A93A981BA81ED91A983BA83E3
:100892001E2FE03019F0A12FD3DFF5CF1881239658
:1008A2000895AA93E4B3E06FE4BBA39AA19AA29A33
:1008B200AB98A998AA98E881E093BE01E058E0932A
:1008C200BA01E881E054E093BB01A4E1B0E00E94E8
:1008D20003050E94FB040E94FB040E94FB04A0E2A9
:1008E20070DF88EC90E00197F1F7A8E27EDFA4E0E8
:1008F2007CDFA5E87ADFA6E078DF94DF2196089511
:10090200BA93AA93A991B991EE27FF276D91662315
:1009120011F03196FBCF0895BA93AA93AA27BB2769
:10092200E991F9910590002011F01196FBCFFD019C
:100932000895FA93EA93E0E0F0E0FA93EA930895D7
:100942000E941304E4EAF1E0FA93EA9308950E9404
:10095200B20584E00E94AE032896E0E0EA93A0E0AC
:100962000E940204A4EAB1E00895F0E03196A1E009
:10097200B0E00E948D050895EA93A1E00C94020470
:10098200A3E0B0E00E948D05EF5FE093A30108951C
:100992002A93AD85BE85EF85F88909950895E88982
:1009A200F9893497E88BF98B0895AD85BE85EF857B
:1009B200F88909950895A889B98914960E94AA050B
:1009C200EE83FF83AE81BF810895A889B989149609
:1009D2000E94AA05EA87FB870895DE011C960E9401
:1009E2000D050E94AA0508950E94F603A3E0B0E057
:1009F2000C940305A0E30E94E20388EC90E00197C7
:100A0200F1F70895109639F080ED97E00197F1F72C
:100A1200A8951197C9F708950024AF0DB01D089548
:100A2200F195E195F0400895F09560957095E19506
:100A3200FF4F6F4F7F4F08957A9F702D6B9F700D00
:100A4200F89F700DE99F700D6A9F602D710DFB9FDD
:100A5200600D711DE89F600D711D8827FA9FF02DB2
:100A6200610D781FEB9FF00D611D781FEA9FE02D4D
:100A7200F10D681F781F089559D0DEDF0EF4D4DF20
:100A820008950024112490E1AA0FBB1F001C111C21
:100A92000E1A1F0A18F40E0E1F1E01C0A1609A95AD
:100AA20099F7FD01D00108953F934F935F9300247E
:100AB20011244427552730E2AA0FBB1F881F991F14
:100AC200001C111C441F551F0E1A1F0A460B570B00
:100AD20028F40E0E1F1E461F571F01C0A1603A9533
:100AE20059F7FD01BC01D001CA015F914F913F91BD
:100AF20008951CD0D9DF0EF497DF0895E894B7FF6C
:100B020004C0A095B09511966894F7FD89DFB9DF0E
:100B1200FD010EF485DF0895E894F7FF02C080DF3F
:100B22006894EA23FB230EF47BDF0895E89477FFB1
:100B320002C07ADF689497FF0BC00024A095B0959D
:100B4200809590951196801D901D00F8039400FAEF
:100B52000895ED91FC91119708950590F491E02D7F
:100B620008957A936A93FA93EA93089500240A16F1
:100B72000B0608955A934A933A932A931A930A9327
:100B820008955D814C813B812A81198108810895F4
:00000001FF
